:1000000071C0000079C0000077C0000075C000001A
:1000100073C0000071C000006FC000006DC0000020
:100020006BC0000069C0000067C0000065C0000030
:1000300063C0000061C000005FC000005DC0000040
:100040005BC0000059C0000057C0000055C0000050
:1000500053C0000051C000004FC000004DC0000060
:100060004BC0000049C0000047C0000045C0000070
:1000700043C0000041C000003FC000003DC0000080
:100080003BC0000039C0000037C0000035C0000090
:1000900033C0000031C000002FC000002DC00000A0
:1000A0002BC0000029C0000027C0000025C00000B0
:1000B00023C0000021C000001FC000001DC00000C0
:1000C0001BC0000019C0000017C0000015C00000D0
:1000D00013C0000011C000000FC000000DC00000E0
:1000E0000BC0000011241FBECFEFD1E2DEBFCDBF99
:1000F00000E00CBF25D012C183CF2AE080E090E061
:10010000FC013197F1F7FC013197F1F7FC013197D0
:10011000F1F72150A9F7089588E18093C1008EE09E
:100120008093C2001092C50087E68093C4000895B2
:10013000E0ECF0E080818823ECF78091C600089520
:1001400084B5816084BD84B5806884BD83E085BD4D
:100150008FEF81B984B987B98AB98093070115B83F
:1001600012B818B881E080930801D6DF0F2EF7E8A7
:10017000AF2EF3E1BF2EF02D0F2EF8E88F2E912C2D
:10018000F02D0F2EF2EC4F2E55245394F02D689441
:10019000CC24C7F8D12C0F2EF1E8EF2EF12CF02D46
:1001A0000F2EF8E76F2E712CF02D22242A94C8E030
:1001B000D1E0BEDF182F803319F4109A119A17C0BE
:1001C000813319F41098119812C0823319F427BCA6
:1001D000139A15C0833319F417BC139810C08433D5
:1001E00011F4149A14C0853311F4149810C0163306
:1001F00011F4159A8DC0173311F4159889C018336E
:1002000011F4169A88C0193311F4169884C0812FFE
:100210008F7D8134B9F4F6018081826A8083F70191
:1002200080818B618083E6E8F0E0B182A082F0E219
:10023000F4B9F4017182608260DFE6E8F0E01182D7
:10024000108263C0823469F4E6E8F0E0B182A082F3
:10025000F4015182408251DFE6E8F0E01182108221
:1002600054C0812F8F7D833411F4179A08C08434D1
:1002700011F4179804C0853411F4479A03C08634EA
:1002800009F44798173419F484E187BD0BC018347A
:1002900019F4FFE3F7BD0BC0193421F411982EE7D0
:1002A00027BD09C01A3419F43DEB37BD82CF1B348A
:1002B00011F427BC7ECF1C3481F488818E7F888323
:1002C0008FEF99E6E8E181509040E040E1F700C00F
:1002D00000008881816088836CCF1D3409F069CF6C
:1002E00088818160888388818E7F8883FFEF23E205
:1002F00034EF80E0F150204030408040D9F700C01A
:10030000000088818160888354CF812F8F7DAFCF9B
:10031000812F8F7D97CF812F8F7DA9CFF894FFCF2D
:00000001FF
